{
  "contractName": "Election",
  "abi": [
    {
      "inputs": [],
      "payable": false,
      "stateMutability": "nonpayable",
      "type": "constructor"
    },
    {
      "constant": true,
      "inputs": [
        {
          "internalType": "uint256",
          "name": "",
          "type": "uint256"
        }
      ],
      "name": "candidates",
      "outputs": [
        {
          "internalType": "uint256",
          "name": "id",
          "type": "uint256"
        },
        {
          "internalType": "string",
          "name": "name",
          "type": "string"
        },
        {
          "internalType": "uint256",
          "name": "voteCount",
          "type": "uint256"
        }
      ],
      "payable": false,
      "stateMutability": "view",
      "type": "function"
    },
    {
      "constant": true,
      "inputs": [],
      "name": "candidatesCount",
      "outputs": [
        {
          "internalType": "uint256",
          "name": "",
          "type": "uint256"
        }
      ],
      "payable": false,
      "stateMutability": "view",
      "type": "function"
    }
  ],
  "bytecode": "0x608060405234801561001057600080fd5b506100556040518060400160405280600481526020017f4e616d6f0000000000000000000000000000000000000000000000000000000081525061009e60201b60201c565b6100996040518060400160405280600581526020017f506170707500000000000000000000000000000000000000000000000000000081525061009e60201b60201c565b6101be565b6001600081548092919060010191905055506040518060600160405280600154815260200182815260200160008152506000806001548152602001908152602001600020600082015181600001556020820151816001019080519060200190610108929190610119565b506040820151816002015590505050565b828054600181600116156101000203166002900490600052602060002090601f016020900481019282601f1061015a57805160ff1916838001178555610188565b82800160010185558215610188579182015b8281111561018757825182559160200191906001019061016c565b5b5090506101959190610199565b5090565b6101bb91905b808211156101b757600081600090555060010161019f565b5090565b90565b61020b806101cd6000396000f3fe608060405234801561001057600080fd5b50600436106100365760003560e01c80632d35a8a21461003b5780633477ee2e14610059575b600080fd5b61004361010e565b6040518082815260200191505060405180910390f35b6100856004803603602081101561006f57600080fd5b8101908080359060200190929190505050610114565b6040518084815260200180602001838152602001828103825284818151815260200191508051906020019080838360005b838110156100d15780820151818401526020810190506100b6565b50505050905090810190601f1680156100fe5780820380516001836020036101000a031916815260200191505b5094505050505060405180910390f35b60015481565b6000602052806000526040600020600091509050806000015490806001018054600181600116156101000203166002900480601f0160208091040260200160405190810160405280929190818152602001828054600181600116156101000203166002900480156101c65780601f1061019b576101008083540402835291602001916101c6565b820191906000526020600020905b8154815290600101906020018083116101a957829003601f168201915b505050505090806002015490508356fea265627a7a723158207357c3bb5f18b7413c40e70df522e2b2e19db4817c33197517f22459e795242064736f6c63430005100032",
  "source": "// SPDX-License-Identifier: MIT\r\npragma solidity >=0.4.22;\r\n\r\ncontract Election {\r\n\t\r\n\t// Model a Candidate\r\n\tstruct Candidate {\r\n\t\tuint id;\r\n\t\tstring name;\r\n\t\tuint voteCount;\r\n\t}\r\n\r\n\t// Store Candidates\r\n\r\n\t// Fetch Candidates\r\n\tmapping(uint => Candidate) public candidates;\r\n\r\n\t// Store Candiates Count\r\n\tuint public candidatesCount;\r\n\r\n\t//For constructor u cant use \"function Election ()\"\r\n\t// Use constructor ()\r\n\t// Constructor\r\n\tconstructor () public{\r\n\t\taddCandidate(\"Namo\");\r\n\t\taddCandidate(\"Pappu\");\r\n\t}\r\n\r\n\tfunction addCandidate (string memory _name) private {\r\n\t\tcandidatesCount++;\r\n\t\tcandidates[candidatesCount] = Candidate(candidatesCount, _name, 0);\r\n\t}\r\n\r\n}",
  "sourcePath": "D:\\Blockchain\\election\\contracts\\Election.sol",
  "compiler": {
    "name": "solc",
    "version": "0.5.16+commit.9c3226ce.Emscripten.clang"
  },
  "schemaVersion": "3.4.3",
  "updatedAt": "2021-11-26T06:04:29.264Z",
  "networkType": "ethereum",
  "devdoc": {
    "methods": {}
  },
  "userdoc": {
    "methods": {}
  }
}